{
  "_format": "hh-sol-artifact-1",
  "contractName": "Todo",
  "sourceName": "contracts/Todo.sol",
  "abi": [
    {
      "inputs": [],
      "stateMutability": "nonpayable",
      "type": "constructor"
    },
    {
      "inputs": [
        {
          "internalType": "string",
          "name": "descriptipn",
          "type": "string"
        },
        {
          "internalType": "string",
          "name": "title",
          "type": "string"
        },
        {
          "internalType": "uint256",
          "name": "_index",
          "type": "uint256"
        }
      ],
      "name": "addTodo",
      "outputs": [],
      "stateMutability": "nonpayable",
      "type": "function"
    },
    {
      "inputs": [
        {
          "internalType": "uint256",
          "name": "_index",
          "type": "uint256"
        }
      ],
      "name": "getTodo",
      "outputs": [
        {
          "internalType": "string",
          "name": "description",
          "type": "string"
        },
        {
          "internalType": "string",
          "name": "title",
          "type": "string"
        }
      ],
      "stateMutability": "view",
      "type": "function"
    },
    {
      "inputs": [
        {
          "internalType": "uint256",
          "name": "",
          "type": "uint256"
        }
      ],
      "name": "todos",
      "outputs": [
        {
          "internalType": "string",
          "name": "descriptipn",
          "type": "string"
        },
        {
          "internalType": "string",
          "name": "title",
          "type": "string"
        },
        {
          "internalType": "uint256",
          "name": "_index",
          "type": "uint256"
        }
      ],
      "stateMutability": "view",
      "type": "function"
    }
  ],
  "bytecode": "0x608060405234801561001057600080fd5b506108b6806100206000396000f3fe608060405234801561001057600080fd5b50600436106100415760003560e01c8063bc8bc2b414610046578063dd68afb614610078578063f62a69c1146100a9575b600080fd5b610060600480360381019061005b91906104df565b6100c5565b60405161006f939291906105b4565b60405180910390f35b610092600480360381019061008d91906104df565b61020f565b6040516100a09291906105f9565b60405180910390f35b6100c360048036038101906100be9190610765565b610361565b005b600081815481106100d557600080fd5b90600052602060002090600302016000915090508060000180546100f89061081f565b80601f01602080910402602001604051908101604052809291908181526020018280546101249061081f565b80156101715780601f1061014657610100808354040283529160200191610171565b820191906000526020600020905b81548152906001019060200180831161015457829003601f168201915b5050505050908060010180546101869061081f565b80601f01602080910402602001604051908101604052809291908181526020018280546101b29061081f565b80156101ff5780601f106101d4576101008083540402835291602001916101ff565b820191906000526020600020905b8154815290600101906020018083116101e257829003601f168201915b5050505050908060020154905083565b606080600080848154811061022757610226610851565b5b90600052602060002090600302019050806000018160010181805461024b9061081f565b80601f01602080910402602001604051908101604052809291908181526020018280546102779061081f565b80156102c45780601f10610299576101008083540402835291602001916102c4565b820191906000526020600020905b8154815290600101906020018083116102a757829003601f168201915b505050505091508080546102d79061081f565b80601f01602080910402602001604051908101604052809291908181526020018280546103039061081f565b80156103505780601f1061032557610100808354040283529160200191610350565b820191906000526020600020905b81548152906001019060200180831161033357829003601f168201915b505050505090509250925050915091565b6000604051806060016040528085815260200184815260200183815250908060018154018082558091505060019003906000526020600020906003020160009091909190915060008201518160000190805190602001906103c39291906103f2565b5060208201518160010190805190602001906103e09291906103f2565b50604082015181600201555050505050565b8280546103fe9061081f565b90600052602060002090601f0160209004810192826104205760008555610467565b82601f1061043957805160ff1916838001178555610467565b82800160010185558215610467579182015b8281111561046657825182559160200191906001019061044b565b5b5090506104749190610478565b5090565b5b80821115610491576000816000905550600101610479565b5090565b6000604051905090565b600080fd5b600080fd5b6000819050919050565b6104bc816104a9565b81146104c757600080fd5b50565b6000813590506104d9816104b3565b92915050565b6000602082840312156104f5576104f461049f565b5b6000610503848285016104ca565b91505092915050565b600081519050919050565b600082825260208201905092915050565b60005b8381101561054657808201518184015260208101905061052b565b83811115610555576000848401525b50505050565b6000601f19601f8301169050919050565b60006105778261050c565b6105818185610517565b9350610591818560208601610528565b61059a8161055b565b840191505092915050565b6105ae816104a9565b82525050565b600060608201905081810360008301526105ce818661056c565b905081810360208301526105e2818561056c565b90506105f160408301846105a5565b949350505050565b60006040820190508181036000830152610613818561056c565b90508181036020830152610627818461056c565b90509392505050565b600080fd5b600080fd5b7f4e487b7100000000000000000000000000000000000000000000000000000000600052604160045260246000fd5b6106728261055b565b810181811067ffffffffffffffff821117156106915761069061063a565b5b80604052505050565b60006106a4610495565b90506106b08282610669565b919050565b600067ffffffffffffffff8211156106d0576106cf61063a565b5b6106d98261055b565b9050602081019050919050565b82818337600083830152505050565b6000610708610703846106b5565b61069a565b90508281526020810184848401111561072457610723610635565b5b61072f8482856106e6565b509392505050565b600082601f83011261074c5761074b610630565b5b813561075c8482602086016106f5565b91505092915050565b60008060006060848603121561077e5761077d61049f565b5b600084013567ffffffffffffffff81111561079c5761079b6104a4565b5b6107a886828701610737565b935050602084013567ffffffffffffffff8111156107c9576107c86104a4565b5b6107d586828701610737565b92505060406107e6868287016104ca565b9150509250925092565b7f4e487b7100000000000000000000000000000000000000000000000000000000600052602260045260246000fd5b6000600282049050600182168061083757607f821691505b6020821081141561084b5761084a6107f0565b5b50919050565b7f4e487b7100000000000000000000000000000000000000000000000000000000600052603260045260246000fdfea2646970667358221220cae09d283c959768effc23f25c62e4a1399c58d3c8ff026225f9e8da9a568b1a64736f6c63430008090033",
  "linkReferences": {},
  "deployedLinkReferences": {}
}