{
  "_format": "hh-sol-artifact-1",
  "contractName": "Raffle",
  "sourceName": "contracts/Raffle.sol",
  "abi": [
    {
      "inputs": [
        {
          "internalType": "address",
          "name": "vftconsumeBaseV2",
          "type": "address"
        },
        {
          "internalType": "uint256",
          "name": "entranceFee",
          "type": "uint256"
        }
      ],
      "stateMutability": "nonpayable",
      "type": "constructor"
    },
    {
      "inputs": [
        {
          "internalType": "address",
          "name": "have",
          "type": "address"
        },
        {
          "internalType": "address",
          "name": "want",
          "type": "address"
        }
      ],
      "name": "OnlyCoordinatorCanFulfill",
      "type": "error"
    },
    {
      "inputs": [],
      "name": "Raffle__Enough",
      "type": "error"
    },
    {
      "anonymous": false,
      "inputs": [
        {
          "indexed": true,
          "internalType": "address",
          "name": "player",
          "type": "address"
        }
      ],
      "name": "Raffleenter",
      "type": "event"
    },
    {
      "inputs": [],
      "name": "enterRaffle",
      "outputs": [],
      "stateMutability": "payable",
      "type": "function"
    },
    {
      "inputs": [],
      "name": "getEntranceFee",
      "outputs": [
        {
          "internalType": "uint256",
          "name": "",
          "type": "uint256"
        }
      ],
      "stateMutability": "view",
      "type": "function"
    },
    {
      "inputs": [
        {
          "internalType": "uint256",
          "name": "index",
          "type": "uint256"
        }
      ],
      "name": "getPlayer",
      "outputs": [
        {
          "internalType": "address",
          "name": "",
          "type": "address"
        }
      ],
      "stateMutability": "view",
      "type": "function"
    },
    {
      "inputs": [],
      "name": "pickRandomWinner",
      "outputs": [],
      "stateMutability": "nonpayable",
      "type": "function"
    },
    {
      "inputs": [
        {
          "internalType": "uint256",
          "name": "requestId",
          "type": "uint256"
        },
        {
          "internalType": "uint256[]",
          "name": "randomWords",
          "type": "uint256[]"
        }
      ],
      "name": "rawFulfillRandomWords",
      "outputs": [],
      "stateMutability": "nonpayable",
      "type": "function"
    },
    {
      "inputs": [],
      "name": "requestRandomNumber",
      "outputs": [],
      "stateMutability": "nonpayable",
      "type": "function"
    }
  ],
  "bytecode": "0x60c060405234801561001057600080fd5b5060405161081f38038061081f83398181016040528101906100329190610110565b818073ffffffffffffffffffffffffffffffffffffffff1660808173ffffffffffffffffffffffffffffffffffffffff1681525050508060a081815250505050610150565b600080fd5b600073ffffffffffffffffffffffffffffffffffffffff82169050919050565b60006100a78261007c565b9050919050565b6100b78161009c565b81146100c257600080fd5b50565b6000815190506100d4816100ae565b92915050565b6000819050919050565b6100ed816100da565b81146100f857600080fd5b50565b60008151905061010a816100e4565b92915050565b6000806040838503121561012757610126610077565b5b6000610135858286016100c5565b9250506020610146858286016100fb565b9150509250929050565b60805160a05161069c61018360003960008181610127015261020d01526000818161014d01526101a1015261069c6000f3fe6080604052600436106100555760003560e01c806309bc33a71461005a5780631fe543e3146100855780632cfcc539146100ae5780638678a7b2146100b8578063898da229146100cf578063e55ae4e8146100e6575b600080fd5b34801561006657600080fd5b5061006f610123565b60405161007c9190610375565b60405180910390f35b34801561009157600080fd5b506100ac60048036038101906100a79190610529565b61014b565b005b6100b661020b565b005b3480156100c457600080fd5b506100cd61030d565b005b3480156100db57600080fd5b506100e461030f565b005b3480156100f257600080fd5b5061010d60048036038101906101089190610585565b610311565b60405161011a91906105f3565b60405180910390f35b60007f0000000000000000000000000000000000000000000000000000000000000000905090565b7f000000000000000000000000000000000000000000000000000000000000000073ffffffffffffffffffffffffffffffffffffffff163373ffffffffffffffffffffffffffffffffffffffff16146101fd57337f00000000000000000000000000000000000000000000000000000000000000006040517f1cf993f40000000000000000000000000000000000000000000000000000000081526004016101f492919061060e565b60405180910390fd5b6102078282610358565b5050565b7f0000000000000000000000000000000000000000000000000000000000000000341015610265576040517f511a580700000000000000000000000000000000000000000000000000000000815260040160405180910390fd5b6000339080600181540180825580915050600190039060005260206000200160009091909190916101000a81548173ffffffffffffffffffffffffffffffffffffffff021916908373ffffffffffffffffffffffffffffffffffffffff1602179055503373ffffffffffffffffffffffffffffffffffffffff167f620051e036107d94bab037d5d67d53093ae0d7b954ccf8a348a0e3d39f94536d60405160405180910390a2565b565b565b600080828154811061032657610325610637565b5b9060005260206000200160009054906101000a900473ffffffffffffffffffffffffffffffffffffffff169050919050565b5050565b6000819050919050565b61036f8161035c565b82525050565b600060208201905061038a6000830184610366565b92915050565b6000604051905090565b600080fd5b600080fd5b6103ad8161035c565b81146103b857600080fd5b50565b6000813590506103ca816103a4565b92915050565b600080fd5b6000601f19601f8301169050919050565b7f4e487b7100000000000000000000000000000000000000000000000000000000600052604160045260246000fd5b61041e826103d5565b810181811067ffffffffffffffff8211171561043d5761043c6103e6565b5b80604052505050565b6000610450610390565b905061045c8282610415565b919050565b600067ffffffffffffffff82111561047c5761047b6103e6565b5b602082029050602081019050919050565b600080fd5b60006104a56104a084610461565b610446565b905080838252602082019050602084028301858111156104c8576104c761048d565b5b835b818110156104f157806104dd88826103bb565b8452602084019350506020810190506104ca565b5050509392505050565b600082601f8301126105105761050f6103d0565b5b8135610520848260208601610492565b91505092915050565b600080604083850312156105405761053f61039a565b5b600061054e858286016103bb565b925050602083013567ffffffffffffffff81111561056f5761056e61039f565b5b61057b858286016104fb565b9150509250929050565b60006020828403121561059b5761059a61039a565b5b60006105a9848285016103bb565b91505092915050565b600073ffffffffffffffffffffffffffffffffffffffff82169050919050565b60006105dd826105b2565b9050919050565b6105ed816105d2565b82525050565b600060208201905061060860008301846105e4565b92915050565b600060408201905061062360008301856105e4565b61063060208301846105e4565b9392505050565b7f4e487b7100000000000000000000000000000000000000000000000000000000600052603260045260246000fdfea264697066735822122082c587394be3fa1d307982d158404cdaf968a085ec26d6fdccedb68576ddbe8664736f6c63430008090033",
  "linkReferences": {},
  "deployedLinkReferences": {}
}