{
  "_format": "hh-sol-artifact-1",
  "contractName": "Raffle",
  "sourceName": "contracts/Raffle.sol",
  "abi": [
    {
      "inputs": [
        {
          "internalType": "address",
          "name": "vrfCoordinatorV2",
          "type": "address"
        },
        {
          "internalType": "uint256",
          "name": "entranceFee",
          "type": "uint256"
        },
        {
          "internalType": "bytes32",
          "name": "gasLane",
          "type": "bytes32"
        },
        {
          "internalType": "uint64",
          "name": "subscriptionId",
          "type": "uint64"
        },
        {
          "internalType": "uint32",
          "name": "callbackGasLimit",
          "type": "uint32"
        }
      ],
      "stateMutability": "nonpayable",
      "type": "constructor"
    },
    {
      "inputs": [
        {
          "internalType": "address",
          "name": "have",
          "type": "address"
        },
        {
          "internalType": "address",
          "name": "want",
          "type": "address"
        }
      ],
      "name": "OnlyCoordinatorCanFulfill",
      "type": "error"
    },
    {
      "inputs": [],
      "name": "Raffle__Enough",
      "type": "error"
    },
    {
      "inputs": [],
      "name": "Raffle__TransferFailed",
      "type": "error"
    },
    {
      "anonymous": false,
      "inputs": [
        {
          "indexed": true,
          "internalType": "address",
          "name": "player",
          "type": "address"
        }
      ],
      "name": "RaffleEnter",
      "type": "event"
    },
    {
      "anonymous": false,
      "inputs": [
        {
          "indexed": true,
          "internalType": "uint256",
          "name": "requestId",
          "type": "uint256"
        }
      ],
      "name": "RequestedRaffleWinner",
      "type": "event"
    },
    {
      "anonymous": false,
      "inputs": [
        {
          "indexed": true,
          "internalType": "address",
          "name": "player",
          "type": "address"
        }
      ],
      "name": "WinnerPicked",
      "type": "event"
    },
    {
      "inputs": [],
      "name": "RecentWinner",
      "outputs": [
        {
          "internalType": "address",
          "name": "",
          "type": "address"
        }
      ],
      "stateMutability": "view",
      "type": "function"
    },
    {
      "inputs": [],
      "name": "enterRaffle",
      "outputs": [],
      "stateMutability": "payable",
      "type": "function"
    },
    {
      "inputs": [],
      "name": "getEntranceFee",
      "outputs": [
        {
          "internalType": "uint256",
          "name": "",
          "type": "uint256"
        }
      ],
      "stateMutability": "view",
      "type": "function"
    },
    {
      "inputs": [
        {
          "internalType": "uint256",
          "name": "index",
          "type": "uint256"
        }
      ],
      "name": "getPlayer",
      "outputs": [
        {
          "internalType": "address",
          "name": "",
          "type": "address"
        }
      ],
      "stateMutability": "view",
      "type": "function"
    },
    {
      "inputs": [],
      "name": "pickRandomWinner",
      "outputs": [],
      "stateMutability": "nonpayable",
      "type": "function"
    },
    {
      "inputs": [
        {
          "internalType": "uint256",
          "name": "requestId",
          "type": "uint256"
        },
        {
          "internalType": "uint256[]",
          "name": "randomWords",
          "type": "uint256[]"
        }
      ],
      "name": "rawFulfillRandomWords",
      "outputs": [],
      "stateMutability": "nonpayable",
      "type": "function"
    },
    {
      "inputs": [],
      "name": "requestRandomNumber",
      "outputs": [],
      "stateMutability": "nonpayable",
      "type": "function"
    }
  ],
  "bytecode": "0x6101406040523480156200001257600080fd5b5060405162000edc38038062000edc833981810160405281019062000038919062000255565b848073ffffffffffffffffffffffffffffffffffffffff1660808173ffffffffffffffffffffffffffffffffffffffff1681525050508360a081815250508473ffffffffffffffffffffffffffffffffffffffff1660c08173ffffffffffffffffffffffffffffffffffffffff16815250508260e081815250508167ffffffffffffffff166101008167ffffffffffffffff16815250508063ffffffff166101208163ffffffff16815250505050505050620002dd565b600080fd5b600073ffffffffffffffffffffffffffffffffffffffff82169050919050565b60006200012182620000f4565b9050919050565b620001338162000114565b81146200013f57600080fd5b50565b600081519050620001538162000128565b92915050565b6000819050919050565b6200016e8162000159565b81146200017a57600080fd5b50565b6000815190506200018e8162000163565b92915050565b6000819050919050565b620001a98162000194565b8114620001b557600080fd5b50565b600081519050620001c9816200019e565b92915050565b600067ffffffffffffffff82169050919050565b620001ee81620001cf565b8114620001fa57600080fd5b50565b6000815190506200020e81620001e3565b92915050565b600063ffffffff82169050919050565b6200022f8162000214565b81146200023b57600080fd5b50565b6000815190506200024f8162000224565b92915050565b600080600080600060a08688031215620002745762000273620000ef565b5b6000620002848882890162000142565b955050602062000297888289016200017d565b9450506040620002aa88828901620001b8565b9350506060620002bd88828901620001fd565b9250506080620002d0888289016200023e565b9150509295509295909350565b60805160a05160c05160e0516101005161012051610ba16200033b60003960006103d7015260006103b4015260006103930152600061035701526000818161016d015261025301526000818161019301526101e70152610ba16000f3fe6080604052600436106100705760003560e01c80638678a7b21161004e5780638678a7b2146100d3578063898da229146100ea578063a5ed140a14610101578063e55ae4e81461012c57610070565b806309bc33a7146100755780631fe543e3146100a05780632cfcc539146100c9575b600080fd5b34801561008157600080fd5b5061008a610169565b60405161009791906106c7565b60405180910390f35b3480156100ac57600080fd5b506100c760048036038101906100c2919061087b565b610191565b005b6100d1610251565b005b3480156100df57600080fd5b506100e8610353565b005b3480156100f657600080fd5b506100ff61049c565b005b34801561010d57600080fd5b5061011661049e565b6040516101239190610918565b60405180910390f35b34801561013857600080fd5b50610153600480360381019061014e9190610933565b6104c8565b6040516101609190610918565b60405180910390f35b60007f0000000000000000000000000000000000000000000000000000000000000000905090565b7f000000000000000000000000000000000000000000000000000000000000000073ffffffffffffffffffffffffffffffffffffffff163373ffffffffffffffffffffffffffffffffffffffff161461024357337f00000000000000000000000000000000000000000000000000000000000000006040517f1cf993f400000000000000000000000000000000000000000000000000000000815260040161023a929190610960565b60405180910390fd5b61024d828261050f565b5050565b7f00000000000000000000000000000000000000000000000000000000000000003410156102ab576040517f511a580700000000000000000000000000000000000000000000000000000000815260040160405180910390fd5b6000339080600181540180825580915050600190039060005260206000200160009091909190916101000a81548173ffffffffffffffffffffffffffffffffffffffff021916908373ffffffffffffffffffffffffffffffffffffffff1602179055503373ffffffffffffffffffffffffffffffffffffffff167f0805e1d667bddb8a95f0f09880cf94f403fb596ce79928d9f29b74203ba284d460405160405180910390a2565b60007f000000000000000000000000000000000000000000000000000000000000000073ffffffffffffffffffffffffffffffffffffffff16635d3b1d307f00000000000000000000000000000000000000000000000000000000000000007f000000000000000000000000000000000000000000000000000000000000000060037f000000000000000000000000000000000000000000000000000000000000000060016040518663ffffffff1660e01b8152600401610418959493929190610a01565b602060405180830381600087803b15801561043257600080fd5b505af1158015610446573d6000803e3d6000fd5b505050506040513d601f19601f8201168201806040525081019061046a9190610a69565b9050807fcd6e45c8998311cab7e9d4385596cac867e20a0587194b954fa3a731c93ce78b60405160405180910390a250565b565b6000600160009054906101000a900473ffffffffffffffffffffffffffffffffffffffff16905090565b60008082815481106104dd576104dc610a96565b5b9060005260206000200160009054906101000a900473ffffffffffffffffffffffffffffffffffffffff169050919050565b600080805490508260008151811061052a57610529610a96565b5b602002602001015161053c9190610af4565b9050600080828154811061055357610552610a96565b5b9060005260206000200160009054906101000a900473ffffffffffffffffffffffffffffffffffffffff16905080600160006101000a81548173ffffffffffffffffffffffffffffffffffffffff021916908373ffffffffffffffffffffffffffffffffffffffff16021790555060008173ffffffffffffffffffffffffffffffffffffffff16476040516105e790610b56565b60006040518083038185875af1925050503d8060008114610624576040519150601f19603f3d011682016040523d82523d6000602084013e610629565b606091505b5050905080610664576040517fa1d04b3900000000000000000000000000000000000000000000000000000000815260040160405180910390fd5b8173ffffffffffffffffffffffffffffffffffffffff167f5b690ec4a06fe979403046eaeea5b3ce38524683c3001f662c8b5a829632f7df60405160405180910390a25050505050565b6000819050919050565b6106c1816106ae565b82525050565b60006020820190506106dc60008301846106b8565b92915050565b6000604051905090565b600080fd5b600080fd5b6106ff816106ae565b811461070a57600080fd5b50565b60008135905061071c816106f6565b92915050565b600080fd5b6000601f19601f8301169050919050565b7f4e487b7100000000000000000000000000000000000000000000000000000000600052604160045260246000fd5b61077082610727565b810181811067ffffffffffffffff8211171561078f5761078e610738565b5b80604052505050565b60006107a26106e2565b90506107ae8282610767565b919050565b600067ffffffffffffffff8211156107ce576107cd610738565b5b602082029050602081019050919050565b600080fd5b60006107f76107f2846107b3565b610798565b9050808382526020820190506020840283018581111561081a576108196107df565b5b835b81811015610843578061082f888261070d565b84526020840193505060208101905061081c565b5050509392505050565b600082601f83011261086257610861610722565b5b81356108728482602086016107e4565b91505092915050565b60008060408385031215610892576108916106ec565b5b60006108a08582860161070d565b925050602083013567ffffffffffffffff8111156108c1576108c06106f1565b5b6108cd8582860161084d565b9150509250929050565b600073ffffffffffffffffffffffffffffffffffffffff82169050919050565b6000610902826108d7565b9050919050565b610912816108f7565b82525050565b600060208201905061092d6000830184610909565b92915050565b600060208284031215610949576109486106ec565b5b60006109578482850161070d565b91505092915050565b60006040820190506109756000830185610909565b6109826020830184610909565b9392505050565b6000819050919050565b61099c81610989565b82525050565b600067ffffffffffffffff82169050919050565b6109bf816109a2565b82525050565b600061ffff82169050919050565b6109dc816109c5565b82525050565b600063ffffffff82169050919050565b6109fb816109e2565b82525050565b600060a082019050610a166000830188610993565b610a2360208301876109b6565b610a3060408301866109d3565b610a3d60608301856109f2565b610a4a60808301846109f2565b9695505050505050565b600081519050610a63816106f6565b92915050565b600060208284031215610a7f57610a7e6106ec565b5b6000610a8d84828501610a54565b91505092915050565b7f4e487b7100000000000000000000000000000000000000000000000000000000600052603260045260246000fd5b7f4e487b7100000000000000000000000000000000000000000000000000000000600052601260045260246000fd5b6000610aff826106ae565b9150610b0a836106ae565b925082610b1a57610b19610ac5565b5b828206905092915050565b600081905092915050565b50565b6000610b40600083610b25565b9150610b4b82610b30565b600082019050919050565b6000610b6182610b33565b915081905091905056fea26469706673582212206381e8c43240a06574d8d871a2ea9864bab01d77b6094a5467f89f422b69875b64736f6c63430008090033",
  "linkReferences": {},
  "deployedLinkReferences": {}
}